:020000040800F2
:10000000080C0020C5000008EB000008ED00000807
:1000100000000000000000000000000000000000E0
:10002000000000000000000000000000EF000008D9
:100030000000000000000000F1000008A507000813
:10004000F5000008F5000008F5000008F5000008BC
:10005000F5000008F5000008F5000008F5000008AC
:1000600000000000F5000008F5000008F500000899
:10007000F5000008F5000008F50000082508000854
:10008000F50000080000000000000000F500000876
:1000900000000000F5000008F5000008F500000869
:1000A00000000000F500000800000000C108000882
:1000B0000348854600F0F8FA00480047791A00081E
:1000C000080C00200C4880F308880C480168090ED1
:1000D0000B4A914205D10B480B4901600B480C4972
:1000E00001600C4880470C480047FEE7FEE7FEE74A
:1000F000FEE7FEE7FEE70000080C00200400000019
:100100001F00000018100240010000000000014024
:1001100000000000A9070008B100000830B50B4638
:10012000014600202022012409E00D46D5409D42D1
:1001300005D31D469540491B254695404019154657
:10014000521E002DF1DC30BD70B50024254600287C
:1001500001DA01244042002901DA01254942FFF772
:10016000DDFFAC4200D04042002C00D0494270BDBF
:1001700003460B439B0703D009E008C9121F08C0C0
:10018000042AFAD203E00B780370401C491C521E6B
:10019000F9D27047F0B507460846584087B0C00FFF
:1001A000049048000E46590040084908BC1A88418E
:1001B00005D2384631461E4617460B4602465800C1
:1001C000400810434CD0300D039040055900400DBD
:1001D000490D0590401A0290402872DA1803012157
:1001E000000B09050843019004980092002805D0EF
:1001F00001995242002088410092019002984021CA
:100200000A1A0199009800F09BF905460C466B46C6
:1002100007CB00F0B6F9C0197141039A0E0D002307
:10022000D71756401A467A40164344D0049A002AFB
:100230002DD0029A012A039A15DC1205C01A9141A9
:1002400001263605001C7141D20F059ED20700938E
:10025000019202962A46234600F0B3F907B0F0BD9A
:1002600038463146FAE71605224A0F46B218C01A38
:10027000B74101210905001C4F4100187F4111467B
:1002800018187941E20F10436D19644113E0E20739
:100290006D0815436408C2071443039A012612052A
:1002A000C01A91413605001C7141CE074008304309
:1002B0004908C01851412A46234600F075F9CDE798
:1002C000FFE7049801224000C117121A00238B4156
:1002D00004983146C417381AA141EEE730B401241E
:1002E000E407634030BC55E730B40124E4076140C3
:1002F00030BC4FE70000E0FFF0B51FB488B00B99A9
:100300000998002448400999C00F490049080991FB
:10031000C0070B990090490049080B91099908986A
:10032000A64608431CD00B990A98084318D0099890
:1003300001244000420D4800410D099824050003A6
:10034000000B204309900B980003000B20430B90F7
:1003500050181C494018002201901446104605E030
:10036000002001460DB0F0BD032801DA034600E08D
:1003700003239C46C11A0AAE0AE05F0008ADED5B9C
:100380004F00F75B7D430027AA187C41491C5B1E88
:100390006145F2DD410004AB5A522104120C0A43BC
:1003A000240C401C0828DFDB01980290009970465D
:1003B00001910090059B049A0799069800F001F9B5
:1003C000D0E700000DFCFFFFF0B50C465C4085B0A7
:1003D000E40FE40703944C00002664085900944697
:1003E000490802460296224321D062460A431ED0A3
:1003F0006200570D4A000E032303550D01240246E7
:100400002C492405781B1B0B360B4018234326432D
:10041000614600901C46501AB44103D30098401C1A
:10042000009002E0921800985B41002803DA002057
:10043000014605B0F0BD00200121090507468646AA
:1004400011E064461D46141BB54106D36546521B98
:10045000B341744607430C43A646CD0740084908FC
:10046000284392185B4105460D43EAD110461843D4
:1004700013D06046194650407140084306D060468C
:10048000101AB34106D20122002306E00022012304
:10049000DB0702E00122D2435310009874460105A5
:1004A000381C6141029C039D0019694100F07CF8F1
:1004B000BFE70000FD03000010B5002904DB0124A4
:1004C000E40740428C412146002B04DB1C460123FB
:1004D000DB075242A341994200D1904210BD000077
:1004E000F0B51FB40646002082B0054640240191B5
:1004F00000901BE0019922460F46304600F030F88C
:10050000049A059B801A994110D310461946224639
:1005100000F016F8361A8F4101972246012000217B
:10052000009F00F00DF838184D4100902046641EE1
:100530000028DFDC019B00982946324607B0F0BD59
:1005400010B5202A04DB0146203A9140002010BD5E
:10055000914020239C1A0346E3401943904010BD6C
:1005600010B5202A04DB0846203AD040002110BDF7
:100570000B46D340D0402024A21A9140084319468C
:1005800010BD10B5202A06DBCB170846203A1041D3
:10059000C1170B4306E00B461341D0402024A21A9A
:1005A00091400843194610BD10B5002B08DA00240D
:1005B000401C614192185B411A4301D14008400040
:1005C00010BDF0B51FB482B005460C0003D008463C
:1005D00000F0D0F902E000F0CDF9203002460090A2
:1005E00021462846FFF7ACFF049B059A04460F46B8
:1005F00018431143084314D0184610431BD00098E9
:1006000040210A1A18460599FFF7AAFF05460E462B
:10061000009A05990498FFF793FF084305D001203D
:1006200004E02046394607B0F0BD0020C11705435D
:100630000E432C43374300990E986305401A790501
:10064000E40A00220C43FD0A0A3002D500200146CC
:10065000E9E70105101969410C9C0D9D00196941DC
:10066000FFF7A2FFDFE700004A0009030123090B9F
:100670001B0519430A4B10B5520D9A4202DA0020AD
:10068000014610BD064B34339A4203DC9A1AFFF739
:1006900067FF10BD034BD218FFF752FF10BD0000DB
:1006A000FF030000CDFBFFFF064C0125064E05E0D1
:1006B000E36807CC2B430C3C98471034B442F7D383
:1006C000FFF7FAFCE4220008042300080CB5002020
:1006D00001900090314800680121090408432F4926
:1006E000086000BF2D4800680121490408400090BF
:1006F0000198401C01900098002804D105210903AD
:1007000001988842EED1254800680121490408403B
:10071000002802D00120009001E000200090009805
:10072000012839D111201E4908601C4840681B4926
:100730004860084640684860084640687F21C90311
:100740008843164948600846406811210904084357
:1007500012494860084600680121090608430F490C
:10076000086000BF0D4800680121490608400028C4
:10077000F8D00A4840688008800008494860084668
:100780004068022108430549486000BF03484068AB
:100790000C2108400828F9D10CBD000000100240CF
:1007A000002002407047000010B51B48006801217E
:1007B0000843194908600846406818490840164926
:1007C0004860084600681649084013490860084612
:1007D00000680121890488430F4908600846406881
:1007E0003F21090488430C4948600846C06A000953
:1007F0000001C8620846006BFF2154318843064956
:1008000008630846406B4008400048630020886049
:10081000FFF75CFF10BD0000001002400CB8FF089D
:10082000FFFFF6FE10B501208007008AC007C00F49
:10083000002807D001208007008A1E4908400121B6
:10084000890708821C480068401C1B490860012079
:100850001A490870052118480068FFF75FFC012954
:1008600003D101201549487010BD192112480068B4
:10087000FFF754FC022903D1012010498870F3E7E7
:1008800032210D480068FFF749FC032903D10120FC
:100890000A49C870E8E7FF21F53107480068FFF70B
:1008A0003DFC042903D1012004490871DCE700BFA5
:1008B000DAE70000FEFF0000800000208400002036
:1008C00010B51F48C0694021084000282BD01C48A3
:1008D000006A08431A4908621A480068002822D0B2
:1008E00019481A490968405C1549203108811748A0
:1008F0000068FF219031884205D214480068401CEE
:100900001249086002E00020104908600D480068A4
:10091000401E0C49086008460068002803D10B48B7
:1009200000680B4908600648C0692021084000287B
:1009300005D0034920318988C8B201F027FB10BDDA
:1009400000380140E800002072060020E00000208E
:10095000E40000200FB410B503A9044B044A029828
:1009600000F0E8F810BC08BC04B01847791900087A
:10097000C80000202021020C01D010211046020ADC
:1009800001D010460839020901D01046091F82081B
:1009900001D01046891E420801D0881E7047081AEF
:1009A000704702E008C8121F08C1002AFAD1704738
:1009B0007047002001E001C1121F002AFBD17047DF
:1009C000F0B51FB486B00998089A030D00210243C0
:1009D00014D05148514A1818504305141198012851
:1009E00010981AD0281A401C00264D4F4D490096E9
:1009F00001910490002812DA444211E01198012478
:100A000049A3012801D11098C1430698119A846026
:100A10000360C26041600BB0F0BD4042E4E70446B1
:100A2000210500203F4A001C51410391029012E031
:100A3000E00707D032463B4601990098FFF75CFC7F
:100A40000191009032463B4610461946FFF754FC90
:100A500006460F466410002CEAD10498039B002838
:100A6000029A0999089806DAFFF746FC019B009A5A
:100A7000FFF742FC05E0FFF7A7FC019B009AFFF798
:100A8000A3FC04460E460022284BFFF715FD03D8B1
:100A90000020C043014607E00022254B2046314696
:100AA000FFF778FBFFF7E0FD102409E0002C0ADBDC
:100AB0000A220023FFF714FD079B30321A55641EEB
:100AC00002460A43F2D11122641C079B121B1C1917
:100AD000119B012B03D0012308430ED10AE00843E8
:100AE00004D0112010900020119077E71098151A6B
:100AF0006D1E0BE01098824202DD00236D1C03E0A6
:100B0000824201DA00236D1E002BEED00698119967
:100B10008260C16030C07EE701FCFFFF104D000025
:100B2000000014400000F03F300000000000F043DF
:100B30000000E03FFFB597B00646002518E22528E3
:100B400077D100242746FD49049400E00443761C35
:100B500032780120203A90400842F7D130782A2894
:100B60000ED00222307801463039092916D804996E
:100B70000A235943303940181443761C0490F1E796
:100B8000189802C804911890002904DA0120400343
:100B900004434842049002200443761C30782E28F7
:100BA00014D1042004437078761C2A2809D118989F
:100BB000761C80C8189009E00A214F43303FC719BE
:100BC000761C3078014630390929F5D930786C28FF
:100BD00010D006DC4C281AD068280ED06A2817D10D
:100BE00004E0742813D07A2812D110E001204005C7
:100BF00004430CE00121090501E0032109050C4330
:100C00007178814203D1012000052418761C761CDE
:100C10003078119066280BD013DC58287DD009DC81
:100C200000287BD04528F6D04628F4D047281AD192
:100C3000A5E118E0632835D0642870D0652812D16A
:100C40009DE170286CD008DC6728F1D069287BD042
:100C50006E280DD06F2806D1BAE073282ED07528E3
:100C600071D0782859D01A9A199990476D1C7EE155
:100C70006002400F022809D003280DD004281898DC
:100C800001680DD00D60001D189070E11898EA17EA
:100C900001680D604A60F6E7189801680D80F2E778
:100CA0000D70F0E718986A4601781172001D1890CF
:100CB0000020507202A80090012005E0189802C898
:100CC000189000200091C04361070DD5002101E07C
:100CD0000199491C0191B94212DA8142F8DB009A6C
:100CE000515C0029F4D10BE0002101E00199491C7D
:100CF00001918142FADB019A0099895C0029F5D1C2
:100D0000019904981A9B471A21463846199A00F00F
:100D100097FA0199401945180BE04FE02CE113E0D8
:100D20004EE0009800990078491C00911A9A199990
:100D300090470198401E0190401CF2D12146384650
:100D40001A9B199A10E137E00A20002100900191C6
:100D50006002410F022907D0189A01CA1892C217DF
:100D60009446032908D00AE01898C01DC108C9009C
:100D700005C91891944607E000B2C21794460429A9
:100D800002D140B2C1178C4600226146944506DA72
:100D90000A460021404291418C462D2102E0210566
:100DA00004D52B216A461173012103E0E10701D02C
:100DB0002021F7E7029155E00A200AE0102008E020
:100DC000102000900021042004430191082703E033
:100DD00008200021019100906002410F022907D0F4
:100DE000189A01CA189200229446032908D008E0F4
:100DF0001898C01DC108C90005C91891944603E0A0
:100E000080B2042900D1C0B200210291210729D566
:100E10001199702906D0009A1021019B4A401A436B
:100E200005D00EE040216A461173012108E06146B9
:100E3000014306D030216A46117311995173022182
:100E40000291009A0821019B4A401A430AD1614647
:100E5000014301D1610705D530216A461173012193
:100E60007F1E02911199582904D035A10E910DA928
:100E70000D910DE037A1F9E76146019B009AFFF75C
:100E80002FFB0E9B8C469B5C0D9A521E0D9213708D
:100E900061460143F0D10D9805A9081A2030019050
:100EA000600703D501200004844300E00127019876
:100EB000874201DD381A00E00020019900904118B6
:100EC000029809180498401A0490E00306D42146B9
:100ED0001A9B199A049800F0B3F94519002706E007
:100EE00003A81A9AC05D199990476D1C7F1C02983F
:100EF0008742F5DBE0030CD521461A9B199A04982A
:100F000000F09EF9451904E01A9A3020199990478B
:100F10006D1C0099481E00900029F5DC08E00D9832
:100F20000D990078491C0D911A9A199990476D1CDA
:100F30000199481E01900029F1DC63E109280100B4
:100F4000303132333435363738396162636465663F
:100F50000000000030313233343536373839414201
:100F6000434445460000000000F05AF94519761C3C
:100F70003078002800D0E2E528461BB0F0BD6007BD
:100F800000D406271898C01DC108C90048680A681F
:100F90000831C30FDB071891190001D09CA108E0AC
:100FA000210501D59BA104E0E10701D09AA100E051
:100FB0009AA1430011985B08109165280CD006DCBB
:100FC000452809D046281DD0472841D141E0662850
:100FD00018D067283CD13CE00021112F01DB112003
:100FE00000E0781C0191009008A911A8FFF7E8FC27
:100FF000139905910021119A15927F1C129801975F
:10100000009150E00120C00703900120019008A941
:10101000009711A8FFF7D4FC139A149905920022A7
:10102000119B009212981593059A0192002901D004
:10103000104602E0791C40180190381A01D5019839
:1010400004E04042401E0090781C0190C01B0290BA
:1010500043E0012F00DA01270021112F01DD1120CB
:1010600000E038460191009008A911A8FFF7A8FCFC
:1010700013990591119A00211298159200910197E8
:1010800021070CD40599B94201DB019900E00191D7
:10109000012904DD159A491E515C302906D0B84259
:1010A00001DA011D05DA0121029115E00199491EBD
:1010B000EDE7002805DC0099411800910199091A13
:1010C00003E0019A411C914200DD01910099401A10
:1010D000401C02900120C0070390200706D402990B
:1010E0000198814202DB0020C04302900020694643
:1010F000C87707AF012103980337C907884224D076
:10110000022011902B201290039800280CDA404204
:1011100003902D20129007E00A210398FEF7FEFFAE
:1011200030317F1E039039701199481E11900029AB
:10113000F2DC03980028EFD1791E129808703078FD
:10114000202108404530BF1E387006A8C01BC01DB6
:10115000039010980078002800D0012001994118D0
:101160000298C0170918039809180498401A401EDD
:101170000490E00306D421461A9B199A049800F0C3
:101180005FF8451910980078002803D01A9A199929
:1011900090476D1CE00324D521461A9B199A0498A8
:1011A00000F04EF845191CE00098002807DB009974
:1011B0000598884203DD1598405C199901E019995A
:1011C00030201A9A904700986D1C401C009002989D
:1011D000401E0290002804D11A9A2E201999904797
:1011E0006D1C0199481E01900029DDDC05E038786E
:1011F0001A9A7F1C199990476D1C0399481E0390F9
:101200000029F4DC21461A9B199A0498ACE60000E8
:101210002D0000002B000000200000000000000056
:10122000F8B5044600251E461746880404D405E098
:1012300039462020B0476D1C641EF9D52846F8BDFC
:10124000FFB50446002581B01E46C80301D53027EE
:1012500000E02027880404D505E038460399B0470C
:101260006D1C641EF9D5284605B0F0BD10B500F020
:10127000EDFC10BD0CB500200190009011201D491F
:1012800008601D4840681C4948600846406848603E
:10129000084640687F21C9038843174948600846CB
:1012A00040680521C904084313494860084600689E
:1012B0000121090608431049086000BF0E48006874
:1012C0000121490608400028F8D00B4840688008F2
:1012D00080000949486008464068022108430649E1
:1012E000486000BF044840680C2108400828F9D134
:1012F0000CBD0000002002400010024006480068BB
:10130000202188430449086008460068402188433A
:101310000149086070470000003801400648006835
:10132000202108430449086008460068402108431A
:101330000149086070470000003801401F484069BB
:101340000121490408431D4948610920C00600687D
:101350000321090488430921C9060860084600687A
:101360000121090408430921C9060860084680884C
:10137000134908400921C90688800846806803216E
:10138000090488430921C90688600846806803214A
:10139000090408430921C90688600846C06803217A
:1013A000090488430921C906C8600846C0680121AC
:1013B000090408430921C906C860704700100240AB
:1013C000FFFE000001460022012901DD501E70478A
:1013D000002902D001290CD105E00920C006808A2D
:1013E000C005C20F06E00920C006808AC005C20FF2
:1013F00000E000BF00BF50B2E9E710B50246012986
:1014000002DD0020C04310BD012A02DD0120C043DF
:10141000F9E7002A02D0012A1ED10EE00920C006F9
:10142000808AFF23013398430B02FF2401342340B9
:1014300018430923DB0698820FE00920C006808A42
:10144000FF23013398430B02FF2401342340184348
:101450000923DB06988200E000BF00BF0020D2E72E
:101460000920C006808A102188430921C906888284
:1014700070470920C006808A102188431030092156
:10148000C90688827047000010B5214840690121D3
:10149000490408431E4948610920C0060068032129
:1014A000090288430921C906086008460068FF212F
:1014B000013108430921C9060860084680881021C7
:1014C00088430921C90688800846806803210902EB
:1014D00088430921C90688600846806803210902FB
:1014E00008430921C90688600846C068032109022B
:1014F00088430921C906C8600846C068FF21013138
:1015000008430921C906C86000F04CF810BD00006E
:101510000010024010B50024FFF7F0FE00F09CF828
:101520000446FFF7FBFE204610BD10B50446FFF74A
:10153000E5FE204600F0B8F8FFF7F0FE002010BDF1
:1015400030B50B460021002A21D0154C03252D0271
:1015500064198510AD0061598407E50EFF24AC4085
:101560000D46A54329469C07240E8507ED0EAC4089
:1015700021430B4C03252D0264198510AD006151E8
:10158000C506ED0E0124AC40054D2C6006E0C506F5
:10159000ED0E0124AC40024D80352C6030BD0000C2
:1015A00000E100E02A484069012149040843284934
:1015B00048610846806989140843254988610920E3
:1015C000C006006A0003000B0921C906086208462C
:1015D00000681521C90208430921C90608600846A8
:1015E0008088E02188430921C906888008468068F0
:1015F0003F21890288430921C9068860084680681E
:101600003F21890208430921C90688600846808A6B
:10161000E02108430921C9068882C32080000D49C2
:101620000880084680880721090208430949888004
:1016300007200882084680880221084305498880DF
:10164000084600884021084302490880704700008E
:10165000001002400030014010B5002405E0601C7D
:10166000C4B2C82C01DD002010BD0E480089022143
:1016700008400028F3D000210A4800F0B9FB0024FC
:1016800005E0601CC4B2C82C01DD0020ECE7054871
:101690000089C007C00F0028F3D0024800F0A2FB69
:1016A000E2E700000030014070B50546002404E088
:1016B000601CC4B2C82C00DD70BD0E480089022138
:1016C00008400028F4D029460A4800F091FB002485
:1016D00004E0601CC4B2C82C00DDEDE705480089B9
:1016E000C007C00F0028F4D0024800F07BFB00BF09
:1016F000E2E70000003001400146114A12884A43E7
:10170000104B5A6100229A611A46126901231A434A
:101710000C4B1A6100BF0B4A1069C207D20F002A96
:1017200004D0012212040240002AF4D0054A1269B2
:1017300052085200034B1A6100229A617047000060
:10174000DC00002000E000E00146114A12784A4324
:10175000104B5A6100229A611A46126901231A43FA
:101760000C4B1A6100BF0B4A1069C207D20F002A46
:1017700004D0012212040240002AF4D0054A126962
:1017800052085200034B1A6100229A617047000010
:10179000DA00002000E000E00848006904218843E6
:1017A00006490861062006490870084600787D2130
:1017B000C9004843034908807047000000E000E08A
:1017C000DA000020DC00002010B51848C0690121B3
:1017D00008431649C86108460069012108431349B6
:1017E000086108460069400840000861002089043B
:1017F00008807D200001C8622F200D49088100204B
:1018000008824906888208468089012108438907A1
:101810008881084600880121084389070880012241
:1018200002210F20FFF78CFE10BD000000100240C7
:1018300020000040F1B582B0002700200190002573
:10184000444C0926F60644484069012149040843EE
:1018500041494861084680690121890308433E499E
:101860008861306A11210902084330623068A02182
:1018700008433060B0880C218843B080B068F02104
:101880000843B060F06850210843F0603248C068F7
:101890000121890308433049C8600846C068012116
:1018A000890388432C49C8602068400840002060B4
:1018B00065680321090328468843054600BF656023
:1018C0002568264805400C2005432560A568810150
:1018D00028468843054600BFA5602148019020683E
:1018E0000121C903084000280CD001994800029941
:1018F000FEF714FC0746019948000299FEF70EFC1A
:101900000D4609E002990198FEF708FC0746029986
:101910000198FEF703FC0D4602984008A84200D843
:101920007F1C20680121C9030840002806D0380721
:10193000450F38460B49084028430746A7812068D1
:10194000012108432060012203211B20FFF7F8FD3D
:10195000FEBD00000038014000100240F3E9FFFF27
:10196000006CDC02F0FF0000C105C90D014A1181C5
:10197000704700002038014070B504460E4600252F
:101980000CE06D1C142000F0BBFA1F492846FEF73E
:10199000DBFB002902D1E0B2FFF7E6FF1B4800683D
:1019A000FF2187318842ECD2FFF7A8FC1748006876
:1019B00000280AD116480068002806D1E0B2FFF7D7
:1019C000D3FF0120124908601AE000201049086086
:1019D0000E480068401C0D4908600E490E4A126806
:1019E0008C540D480068FF219031884205D20A4886
:1019F0000068401C0849086002E0002006490860B1
:101A0000FFF78CFC204670BD204E0000E80000204F
:101A1000CC00002072060020E400002010B504462F
:101A200000212046014A1268904710BD9400002012
:101A300010B5044601212046014A1268904710BDA6
:101A40009400002070B50446204600F00BF80546CF
:101A5000002D03D02046FFF7E1FF02E02046FFF70C
:101A6000E7FF70BD10B50446204602490968884763
:101A700010BD00009800002000F097FBFFF7F6FB78
:101A800001E000F0BBF9FCE710B500F001F810BD73
:101A900000B585B01C48007800280AD11B48FEF725
:101AA00059FF1B48FEF756FF17480078401C16499F
:101AB000087015480078002823DD1648407B15493A
:101AC000097B144A5289134B1B890193029203919B
:101AD00004901048C08800900E488388428801888E
:101AE0000D48FEF737FF08480078401C064908708B
:101AF000084600780C2804D10020087007A0FEF7E3
:101B000029FF05B000BD00007C00002098220008DD
:101B1000FC21000800060020482200080A0A0000F4
:101B200010B5002400BF06E0E2B2E0B2012100F0EF
:101B300035F9601C84B21E2CF6DB1E2408E0E2B2EC
:101B400021461E39C8B2022100F028F9601C84B277
:101B50003C2CF4DB3C2408E0E2B221463C39C8B21C
:101B6000032100F01BF9601C84B25A2CF4DB5A24C8
:101B700008E0E2B221465A39C8B2042100F00EF959
:101B8000601C84B2782CF4DB782408E0E2B22146B1
:101B90007839C8B2052100F001F9601C84B2962C96
:101BA000F4DB962408E0E2B221469639C8B2062159
:101BB00000F0F4F8601C84B2B42CF4DBB42408E028
:101BC000E2B22146B439C8B2072100F0E7F8601C40
:101BD00084B2D22CF4DBB42408E0E2B22146B4395A
:101BE000C8B2082100F0DAF8601C84B2D22CF4DB11
:101BF000D22408E0E2B22146D239C8B2092100F06D
:101C0000CDF8601C84B2F02CF4DBF02408E0E2B2E2
:101C10002146F039C8B20A2100F0C0F8601C84B235
:101C2000FF2CF4DB10BD000010B50548007801283A
:101C300005D10E2201210348034B1B68984710BDB4
:101C4000D400002000060020C000002010B50024B1
:101C50000221002000F0AEF864202249096888477C
:101C60000021084600F0A6F864201E49096888474C
:101C70000421084600F09EF864201A490968884744
:101C80004021042000F096F864201649096888472E
:101C90000821002000F08EF8642012490968884766
:101CA0000021012000F086F864200E490968884769
:101CB000EC2000F02BF804466106490E6C2000F081
:101CC00079F82D210C2000F075F864200549096889
:101CD00088470921C9430A2000F006F8FFF720FFD2
:101CE00010BD00009000002070B504460D4620464F
:101CF000203044B22846103045B2E1B2022000F054
:101D000059F8E9B2032000F055F870BD70B50446EB
:101D100000250E480068804714200D49096888474F
:101D2000A02C04DB20460B490968884705E0802188
:101D300021430846074909688847074800688047E3
:101D40000546064800688047284670BDA000002070
:101D50008C000020A8000020AC000020A40000207F
:101D600070B504460D460B4800688047FF2000020E
:101D700020400112052000F01DF8E1B2062000F01D
:101D800019F82946072000F015F803480068804735
:101D900070BD0000A0000020A4000020F8B504469B
:101DA0000D4616461E206843071931463846FFF790
:101DB000D7FFF8BD70B505460C4607480068804758
:101DC0002846064909688847204604490968884723
:101DD00003480068804770BDA0000020A8000020D4
:101DE000A4000020014600220A460C3210787047F9
:101DF000002202460C3211707047000070B50024BA
:101E0000002500BF1EE01148005D012818D1002008
:101E10000E490855002511E0182060430C49401870
:101E2000E90040180079012806D118216143084AC9
:101E30008918EA0088588047681CC5B2032DEBDB7F
:101E4000601CC4B2052CDEDB70BD000084000020E5
:101E5000000000200F481049086010481049086031
:101E60001048114908601148114908601148124989
:101E70000860124812490860124813490860134864
:101E8000134908601348144908601448144908604D
:101E900070470000011F00088C000020F51E00089C
:101EA000900000204D210008C0000020952100086E
:101EB000C400002061140008A00000207314000872
:101EC000A400002015150008AC0000202B15000808
:101ED000A8000020C513000898000020FB1300088C
:101EE0009400002010B5FFF7C5F910BD10B5FFF73D
:101EF00053FC10BD10B504462046FFF7FDFB10BD96
:101F000010B504462046FFF71FFC10BD70B504460F
:101F10000D46164600F030F832462946204600F0BD
:101F200001F870BD70B503460020114C217162713B
:101F30002A2A19DC00BF0BE01D5C841D0C4E3555B0
:101F40001C5C0C4D2D8864190A4D2C80441CE0B299
:101F50009042F1DB074C2578841D054E3555054C24
:101F600024882512C41D35550024024D2C8070BDD7
:101F700040060020D6000020FC200349087048706D
:101F80008870C870704700004006002010B50446F5
:101F900005480078042803DA204600F007F802E03C
:101FA000204600F04FF810BDD000002023490978EA
:101FB00000290BD1FC2805D120490978491C1F4A6A
:101FC0001170704700211D4A1170FAE71B4909780A
:101FD00001290BD1FC2805D118490978491C174A59
:101FE0001170EEE70021154A1170EAE713490978EC
:101FF00002290BD1FC2805D110490978491C0F4A48
:102000001170DEE700210D4A1170DAE70B490978FB
:10201000032910D1FC280AD108490978491C074A2C
:10202000117007490978491C054A1170C9E7002158
:10203000024A1170C5E700BFC3E70000D0000020CE
:10204000D10000203949097801290CD1384908709C
:1020500036490978491E374A505434490978491C91
:10206000324A117070473149097802290CD132493E
:1020700008702E490978491E2E4A50542B49097878
:10208000491C2A4A1170EDE72849097803294ADBDF
:1020900026490978322946DC24490978491E254A0F
:1020A000505422490978891E234A1278914205DC4E
:1020B000224909880918214A11802EE01B49097814
:1020C000091F1D4A1278914227D118490978491EE3
:1020D000184A515C09021A4A118014490978891E6C
:1020E000144A515C164A12881143154A118013494B
:1020F00009881288914203D10121124A117002E02D
:102100000021104A117000210F4A1170074A117006
:102110000A4A11800A4A1180A4E704490978491C37
:10212000024A11709EE700BF9CE70000D10000202A
:10213000D40000200E060020D3000020D80000208C
:10214000D6000020D2000020D000002070B5064646
:102150000C4615460B480078854210DC0A4800788A
:1021600001280CD109480078A04208D12A46084924
:102170003046FDF7FDFF00200349087070BD0020C8
:10218000C043FBE7D3000020D2000020D400002091
:102190001006002070B504460D4616463246294604
:1021A0002046FFF7B3FE002070BD10B5FFF79AFE82
:1021B000FFF750FEFFF79AFEFFF706FBE120400213
:1021C000FFF738FBFFF7BAF8FFF75EF910BD10B55F
:1021D000FFF75AFC10BD000010B50020FFF732FCDD
:1021E00002480068401C0149086010BD78000020CA
:1021F00010B5FFF719FD10BD704700002A2A2A2AE2
:102200002A2A2A2A2A2A2A2A2A2A2A2A2A2A2A2A2E
:102210002A2A2A2A2A2A2A2A2A2A2A2A2A2A2A2A1E
:102220002A2A2A2A2A2A2A2A2A2A2A2A2A2A2A2A0E
:102230002A2A2A2A2A2A2A2A2A2A2A2A2A2A2A2AFE
:102240002A2A2A2A2A2A0A003078253034582020BF
:102250002020307825303458202020203078253038
:102260003458202020203078253034582020202059
:1022700030782530345820202020307825303458CC
:102280002020202030782530325820202020202087
:102290003078253032580A00666C7974696D652093
:1022A000202068656164696E67202020706974630E
:1022B000682020202020726F6C6C2020202020209D
:1022C000706F776572202020202073706565642010
:1022D00020202020616C74697475646520207273FD
:1022E000730A00000423000800000020EC00000036
:1022F000A2090008F0230008EC0000201C0B0000DD
:10230000B2090008F921000800000000F9210008C6
:1023100000000000F921000800000000F921000879
:1023200000000000F921000800000000F921000869
:1023300000000000F121000801000000F921000860
:1023400000000000F921000800000000CF21000873
:1023500001000000D921000801000000F921000857
:1023600000000000F921000800000000F921000829
:1023700000000000F921000800000000000000003B
:10238000000000000000000000000000000000004D
:10239000000000000000000000000000000000003D
:1023A000000000000000000000000000000000002D
:1023B000000000000000000000000000000000001D
:1023C000000000000000000000000000000000000D
:1023D00000000000000000000000000000000000FD
:1023E00000000000000000000000000000000000ED
:04000005080000B13E
:00000001FF
